:020000040800F2
:1000000060130020A10100080D090008090900087B
:100010000B090008F5070008B515000800000000EE
:10002000000000000000000000000000DB0F0008DE
:10003000F707000800000000790900089510000883
:10004000BB010008BB010008BB010008BB010008A0
:10005000BB010008BB010008BB010008BB01000890
:10006000BB010008BB010008BB010008BB01000880
:10007000BB010008BB010008BB010008BB01000870
:10008000BB010008BB010008BB010008BB01000860
:10009000BB010008BB010008BB010008BB01000850
:1000A000BB010008BB010008BB010008BB01000840
:1000B00001110008BB010008BB010008BB010008DA
:1000C000BB010008BB010008BB010008BB01000820
:1000D000BB010008B9130008BB010008BB01000800
:1000E000BB010008BB010008BB010008BB01000800
:1000F000BB010008BB010008BB010008BB010008F0
:10010000BB010008BB010008BB010008BB010008DF
:10011000BB010008BB010008BB010008BB010008CF
:10012000BB010008BB010008BB010008BB010008BF
:10013000BB010008BB010008BB010008BB010008AF
:10014000BB010008BB010008BB010008BB0100089F
:10015000BB010008BB010008BB010008BB0100088F
:10016000BB010008BB010008BB010008BB0100087F
:10017000BB010008BB010008BB010008BB0100086F
:10018000BB010008BB010008DFF810D000F02CF81C
:1001900000480047F11E0008AFF300806013002004
:1001A0000648804706480047FEE7FEE7FEE7FEE711
:1001B000FEE7FEE7FEE7FEE7FEE7FEE7A510000824
:1001C0008901000840EA01039B0703D009E008C940
:1001D000121F08C0042AFAD203E011F8013B00F80C
:1001E000013B521EF9D27047064C074D06E0E0680D
:1001F00040F0010394E8070098471034AC42F6D36E
:10020000FFF7C6FFC8250008E825000870B50D48AF
:1002100001F03EFD00F034FE02F016F900F02AF87D
:10022000094E80243480282000F084F8B51C2C80EE
:100230003C2000F07FF83480282000F07BF82C80F0
:1002400070BD00002D0E00201818024008B503E014
:100250009DF8000002F042F8684600F01FFA0028FE
:10026000F6D103480078002801D001F0E1FF08BD75
:10027000380000201CB50121402000F0D7FB802071
:10028000009001208DF8040000208DF80600022067
:100290008DF807008DF80500044C6946204600F0F3
:1002A000E1FA8021204600F02BFB1CBD0018024023
:1002B00008B500F001FC012000F0A8FC212000F0AE
:1002C00077FC0028FAD0052000F0C6FA012000F0E3
:1002D000B3FA012000F0A0FA012000F08DFA00200E
:1002E00000F08AFC4FF4A05000F096FC4FF48050D0
:1002F00000F09CFC0720009002234FF4A87210210C
:10030000002000F0A3FC012000F09AFC392000F04E
:100310004FFC0028FAD0022000F0AAFC00F064FC98
:100320000828FBD102490148086008BD007A030A89
:100330000000002000B5024600F02CF8014600F055
:1003400029F8401A9042FAD300BD000010B50E49BA
:100350004FF0E02308689A690C68A042FAD10B4973
:100360004FF47A730968B1FBF3F39A1A084B521EE3
:10037000B1FBF3F1B2FBF1F100EB4002C2EBC010B4
:1003800001EBC00010BD0000240000200000002090
:1003900040420F0001480068704700002400002020
:1003A00070B588B00121022000F040FB01218803D4
:1003B00000F04AFB2D4E05220D21304600F090FA48
:1003C00005220E21304600F08BFA05220F2130461F
:1003D00000F086FA4FF46040069002218DF81C1060
:1003E00000248DF81E4001258DF81F508DF81D103A
:1003F00006A9304600F036FA4FF4C05006908DF84A
:100400001C508DF81E408DF81F5006A9304600F094
:1004100029FA2903304600F075FAE902304600F067
:100420006FFAADF804404FF48270ADF80600ADF8F5
:100430000840ADF80A40ADF80C406802ADF80E0077
:100440001020ADF81000ADF812400720ADF81400F0
:10045000074C01A9204600F0A4FD204600F09DFDB8
:100460000121204600F086FD08B070BD0004024066
:10047000003800402DE9F05F81460E46002E0AD07C
:10048000FFF788FF04464FF4006B3E4F4FF4805A4D
:10049000DFF8F48011E00020BDE8F09FFFF77AFF5D
:1004A000001B052809D95946384600F029FA51465B
:1004B000384600F027FA0120EEE78021404600F0A0
:1004C00065FD0028EAD15146384600F019FA594630
:1004D000384600F017FA00241FE0FFF75BFF0546DF
:1004E0000EE0FFF757FF401B052809D9594638464B
:1004F00000F006FA5146384600F004FA0120CBE736
:100500000221404600F042FD0028EAD019F804100C
:10051000404600F044FD641CA4B2B442DDD3FFF7B2
:1005200039FF04460EE0FFF735FF001B052809D907
:100530005946384600F0E4F95146384600F0E2F9F1
:100540000120A9E78021404600F020FD0028EAD1E3
:100550005946384600F0D4F95146384600F0D2F9F1
:100560000024361DB5B209E00121404600F00EFD21
:1005700030B1404600F011FD641CA4B2A542F3D88E
:10058000002089E700040240003800400A484FF488
:100590007A710068B0FBF1F0401EB0F1807F09D2A3
:1005A0004FF0E0214861054AF0201070002088617A
:1005B00007200861704700000000002023ED00E0E4
:1005C00010B50121084600F03FFA044920200870C8
:1005D0004FF0E021C005C1F8000110BD1CE400E0AF
:1005E0003EB50446002C00D1012441F288308442FB
:1005F00000D90446114884604FF08045284600F039
:10060000AFFD0020ADF80000ADF802000C49B1FBD1
:10061000F4F1491E0191ADF808008DF80A00694611
:10062000284600F08BFE0121284600F087FD0122BC
:100630001146284600F076FE3EBD0000280000204E
:1006400000BD010510B5084800214180012101705D
:100650004FF080440021204600F06EFE2046BDE8A9
:100660001040012100F070BD2800002010B50021CD
:100670004FF0804000F068FD024800210170418089
:1006800010BD00002800002072B6034948880022EF
:100690004A8062B6704700002800002010B50B4C5D
:1006A00021886288914201D1002010BD62880749EB
:1006B000091D515C0170BFF35F8F60884FF480713A
:1006C00001F004FE6080012010BD00006C040020D9
:1006D000F0B587B006462A4900244C800C8001F210
:1006E0000440448004800121084600F09FF9012164
:1006F000102000F0C5F9234F07220921384600F0E9
:10070000EFF807220A21384600F0EAF84FF4C060FB
:10071000059002218DF818108DF81A4001258DF8EA
:100720001B508DF8191005A9384600F09BF801966A
:10073000ADF80840ADF80A40ADF80C40ADF81040F7
:100740000C20ADF80E00104E01A9304600F0CCFE92
:10075000012240F22551304600F0ABFE25218DF8F4
:1007600000108DF801508DF802408DF80350684656
:1007700000F0CEF80121304600F068FE07B0F0BD71
:100780006800002000000240001001402DE9F04701
:1007900080460F46002F1BD000240E4D4FF4806979
:1007A0002E1D0FE02888494601F090FD698881429E
:1007B000FCD018F804102A889155BFF35F8F288069
:1007C000641CA4B2BC42EDD3BDE8F04701F0B8BE52
:1007D000BDE8F08768000020054801884088081AB5
:1007E00000B2002801DA00F5806080B27047000096
:1007F00068000020FEE770470649002804D008681A
:1008000040F4806008607047086820F480600860E9
:1008100070470000003C02400649002804D00868E8
:1008200040F4007008607047086820F400700860A9
:1008300070470000003C02400649002804D00868C8
:1008400040F4807008607047086820F48070086089
:1008500070470000003C02400149087070470000EA
:10086000003C02402DE9F041002201274FF0030C2B
:1008700007FA02F50B682B40AB422CD106685300F7
:100880000CFA03F4A64306600E79D0F800809E406F
:1008900046EA080606600E79012E01D0022E12D11A
:1008A0008668A64386604E79D0F808809E4046EA66
:1008B000080686604668AE43466045688E79964075
:1008C000B6B235434560C568A543C560CC799C4048
:1008D000C3681C43C460521C102AC9D3BDE8F08110
:1008E00010B54B07DB0E9A40C90800EB8100016A86
:1008F0000F249C40A1430162016A1143016210BDB3
:100900004183704701837047FEE7FEE770470000B0
:1009100030B50F23C27801250178002A1FD0154A6F
:10092000126802F4E062C2F5E062C2F30722C2F18B
:100930000404D3404278A24084781C40144322012E
:1009400001F1E02181F80024007800F01F018D40C2
:100950004009800000F1E020C0F8005130BD01F0F6
:100960001F0085404809800000F1E020C0F8805158
:1009700030BD00000CED00E07047F0B50446DDE945
:100980000576002C04D0B6F5807F03D90020F0BD99
:100990000020F0BD06B1A7B1A52020705A206070DC
:1009A000A170E670300A20716271100AA071E371C3
:1009B000180A2072180C6072180E0B25A072002005
:1009C00008E00020F0BD29463A5C6D1CADB26254CF
:1009D000401C80B2B042F6D306F10901A01C00F021
:1009E00008F8691C89B26055020A481C80B262543A
:1009F000F0BDF0B506464FF6FF70002341F2210529
:100A0000044610E0F25C80EA02200022070403D5CD
:100A100085EA400080B201E004EA4000521CD2B2F4
:100A2000082AF3D35B1C8B42ECD3F0BD054A0029A6
:100A300003D0116801431160704711688143116050
:100A40007047000030380240054A002903D0116881
:100A500001431160704711688143116070470000C5
:100A600040380240054A002903D011680143116053
:100A700070471168814311607047000020380240C0
:100A8000054A002903D011680143116070471168BD
:100A9000814311607047000044380240054A002934
:100AA00003D01168014311607047116881431160E0
:100AB00070470000243802401048016841F00101ED
:100AC00001600E4A00210832116002680C4B1A4086
:100AD0000260031D0B4A1A60084B0B4A84331A60EC
:100AE000084A103A1B1D1A60026822F48022026034
:100AF00002480C300160181D016070470038024048
:100B0000FFFFF6EA103000240030002070B5244BBF
:100B1000196801F00C01234C00291ED0224E042933
:100B20001DD008291DD00460196801F0F0010909E1
:100B30001E4A545C0168E14041601C6804F4E054C2
:100B4000A40A145D21FA04F484601B6803F4604372
:100B50005B0BD25CD140C16070BD0460E4E706600D
:100B6000E2E70F4A121F1168C1F38055116801F0C6
:100B70003F0135B1B6FBF1F11468C4F38814614349
:100B800005E0B4FBF1F11468C4F388146143126802
:100B9000C2F30142521C5200B1FBF2F10160C3E703
:100BA000083802400024F40040787D011400002041
:100BB00002460020510901290BD002290DD0094914
:100BC000096802F01F02012393400B4200D001206C
:100BD0007047044974390968F3E70249091F096835
:100BE000EFE70000743802400248006800F00C0093
:100BF0007047000008380240034A116821F0F001F4
:100C00000143116070470000083802400149086044
:100C10007047000000004742034A116821F4E05188
:100C2000014311607047000008380240034A116810
:100C300021F4604141EAC00010607047083802406A
:100C400001490866704700000000474210B5029C49
:100C500041EA82114FF0FF3202EB530241EA0241B6
:100C6000014341EA04600149086010BD04380240B4
:100C7000034A116821F0030101431160704700002D
:100C8000083802402DE9FF4F04462DED068BE5B0F4
:100C90007898218C00EE101AB8EE400ADFED740A45
:100CA00060EE209A2779002F09D0082F00D9082755
:100CB0008DF8187128B1007800F0010002E00127DA
:100CC000F6E700208DF819010020ADF81A016C98A4
:100CD0004790FFF75FFB489000260DF58C79A6E062
:100CE000F2B220466C9901F02BFAF0EE408AF5EE54
:100CF000C09AF1EE10FA04DD01F0CAF820EE298A5C
:100D000001E09FED5C8AE068B6EE00AA00EE100AF2
:100D100078EECA8ABDEEC89AB8EE400A19EE100AFB
:100D200028EE800ABDEEC00A10EE101A0844A16831
:100D300008444FF6FF784246002100F0CBFF0590B3
:100D4000606900EE100A19EE100AB8EE400A28EEAB
:100D5000800ABDEEC00A10EE101A0844216908444A
:100D600047F6FF756FEA050B2A46594600F0B2FFB9
:100D70008246606900EE100AB8EE400A28EE800A4A
:100D8000DFED3D0A20EE200ABDEEC00A10EE100A8B
:100D900028EE0A0ABDEEC00A10EE101A08442A46D0
:100DA000594600F097FF0490E06900EE100A19EE32
:100DB000100AB8EE400A28EE800ABDEEC00A10EE16
:100DC000101A0844A16908442A46594600F082FFD7
:100DD000834602A803A9CDE90010F0B222463946A5
:100DE0006C9B01F097F8C6EBC60109EB410505982D
:100DF000A881A5F80EA004982882A5F812B09FED4E
:100E00001F0A49F27041424628EE000ABCEEC00AB1
:100E100010EE100A0844002100F064FFA882BDF81B
:100E20000C00E882BDF808002883761CB6B2BE42EA
:100E3000FFF456AFC7EBC7000C2101EB40010020C7
:100E400006AA04E019F800301354401C80B288420E
:100E5000F8D3CDE900218521489B6D9A6E98FFF764
:100E60008CFD65B0BDEC068B04B0BDE8F08F0000D2
:100E7000CDCCCC3D000000009A99993E0000FA4488
:100E800010B5FFF763FA1B4948401B490860002072
:100E90001A4ADFED1B0A9FED1B3A9FED1B1ADFED8F
:100EA0001B3AB6EE002AF4EE001A02EB001181EDB7
:100EB000002A00EE100AB8EEC00A20EE210A81EDE9
:100EC000010A00EE100AF8EEC02AB0EE430A12EE54
:100ED000A00A81ED020A00EE100AF8EEC02AB0EE78
:100EE000630A12EE810A81ED030A401C0828DCD354
:100EF00010BD0000EEFFC0A53400002070080020E7
:100F00000000F0420000B4430000A0420000704323
:100F10000020134ADFED130ADFED132A9FED131AA9
:100F20009FED133AF6EE001A02EB0011C1ED001A24
:100F300000EE100AB8EEC02AB0EE620A12EE200AE5
:100F400081ED020A00EE100AB8EEC02AB0EE430AA4
:100F500012EE010A81ED030A401C0828E4D3704711
:100F6000700800200000F0420000B4430000A042DE
:100F700000007043002904D0018841F04001018045
:100F80007047018821F0400101807047024600202F
:100F900012890A4200D00120704780897047818100
:100FA000704730B5028802F441530A884C88CD88D6
:100FB00022438C882C4322430C8922434C892243B0
:100FC0008C892243CC8922431A430280828B22F4EB
:100FD00000628283098A018230BD70470CB500220D
:100FE000019200922749086840F4803008604FF46D
:100FF000A043086800F4003000900198401C019064
:10100000009810B901989842F3D10868800302D57E
:101010000120009000E000920098012831D1194889
:101020004030026842F0805202601748026842F481
:10103000404202601348083002680260026842F4CD
:1010400000420260026842F4A0520260021F0F4B8D
:1010500013600A6842F080720A600A689201FCD547
:101060000B4A40F205711160016821F00301016033
:10107000016841F0020101600168C1F381010229A8
:10108000FAD10CBD003802400070004019544007EE
:10109000003C024002480168491C016070470000A2
:1010A0002400002010B51248016841F4700101606D
:1010B0001048016841F0010101600E4A0021083228
:1010C000116002680C4B1A400260031D0B4A1A6043
:1010D000026822F48022026006480C300160FFF7AB
:1010E0007DFF03494FF000608039086010BD0000AB
:1010F00088ED00E000380240FFFFF6FE10300024CB
:1011000010B501218C07204600F000F900280DD011
:101110000121204600F015F807480178002905D084
:101120004188202903D24188491C418010BD416873
:10113000491C416010BD000028000020C943018205
:101140007047C94301827047002904D0018841F0EB
:10115000010101807047018821F001010180704781
:1011600010B55D49884209D101210846FFF796FC78
:101170000021BDE810400120FFF790BCB0F1804F86
:101180000CD05649884213D101210220FFF76AFC96
:101190000021BDE810400220FFF764BC0121084691
:1011A000FFF760FC0021BDE810400120FFF75ABCAA
:1011B0004B49884209D101210420FFF753FC00214B
:1011C000BDE810400420FFF74DBC4649884209D1D4
:1011D00001210820FFF746FC0021BDE8104008204F
:1011E000FFF740BC4049884209D101211020FFF798
:1011F00039FC0021BDE810401020FFF733BC3B490B
:10120000884209D101212020FFF72CFC0021BDE8F4
:1012100010402020FFF726BC3549884209D1012122
:101220000220FFF73BFC0021BDE810400220FFF741
:1012300035BC304988420AD101210C042046FFF711
:101240002DFC2046BDE810400021FFF727BC2A49AD
:1012500088420AD101214C042046FFF71FFC20469A
:10126000BDE810400021FFF719BC244988420AD18B
:1012700001218C042046FFF711FC2046BDE81040F8
:101280000021FFF70BBC1E49884209D101214020F3
:10129000FFF7E8FB0021BDE810404020FFF7E2BB6C
:1012A0001849884209D101218020FFF7DBFB00218A
:1012B000BDE810408020FFF7D5BB134988420AD112
:1012C000841501212046FFF7CDFB2046BDE81040E4
:1012D0000021FFF7C7BB10BD000001400004004023
:1012E00000080040000C00400010004000140040C6
:1012F000000401400040014000440140004801401A
:1013000000180040001C0040002000400246002061
:10131000138A0B4092890A40002B02D0002A00D089
:1013200001207047002A03D082890A4382817047D6
:1013300082898A43828170474162704730B5028852
:10134000164C174DA0420DD0A8420BD0B0F1804FE3
:1013500008D0144B984205D0134B984202D0134B3F
:10136000984203D122F070034A881A43104B9842E6
:1013700006D0104B984203D022F440730A891A43D6
:1013800002804A68C2620A880285A04201D0A8424F
:1013900001D1897A01860121818230BD000001409E
:1013A000000401400004004000080040000C004020
:1013B000001000400014004070B5214E40F225514D
:1013C000304600F056F888B1304600F0EBF8C4B271
:1013D0001C4D2888B11500F079FF6988814205D03D
:1013E0002A88291D5454BFF35F8F288040F2277547
:1013F0002946304600F03DF8C0B1134C2088618882
:1014000088420ED06188201D095C304600F0CEF87D
:10141000BFF35F8F60884FF4806100F057FF6080FA
:1014200004E000222946304600F043F83446082103
:10143000204600F017F8002801D0A088208870BD51
:10144000001001406C04002068000020002904D036
:10145000818941F4005181817047818921F40051D3
:10146000818170470246002012880A4200D0012084
:10147000704770B5002440F66A12C1F3421301F0C0
:101480001F05012606FA05F2012B0CD0022B0DD008
:10149000838A1340090A8E40008830400BB100B1A6
:1014A0000124204670BD83891340F3E7038A13406B
:1014B000F0E710B540F66A13C1F3421301F01F04C0
:1014C0000121A140012B07D0022B07D014303AB1E3
:1014D00002680A43026010BD0C30F8E71030F6E7EE
:1014E00002688A43026010BD7FB504460D46208A1B
:1014F00020F44051E88808432082A08941F20C6121
:101500008843A9882A8911436A8902431143A1812A
:10151000A08A20F44071A8890843A0826846FFF79A
:10152000F5FA1E48844202D01D48844201D1039836
:1015300000E00298A189090408D500EBC00101EB85
:10154000001029684900B0FBF1F007E000EBC00192
:1015500001EB001029688900B0FBF1F06422B0FBB8
:10156000F2F109010B096FF018056B4300EB8300E2
:10157000A3891D044FF0320307D503EBC000B0FB75
:10158000F2F000F00700084306E003EB0010B0FBA8
:10159000F2F000F00F00084320817FBD00100140F1
:1015A000001401408088C0F308007047C1F30801AF
:1015B00081807047FEE74100080218BF04200A0E30
:1015C00018BF40F001004FF07F4232EA010108BF2E
:1015D00040F00200012808BF0520704710EE101AE5
:1015E00008B5444A6846B2EB410F28D94FF0E640AF
:1015F000B0EB410F94BF00204FF0FF3000900098F7
:10160000002861DB60EE000A10F0010F45D010F0F9
:10161000020FDFED391A9FED391A00EEE11ADFED06
:10162000381A40EE811A21EEA01AF0EE400A40EE80
:10163000010A08BFF1EE600AB0EE600A08BD314B46
:1016400021F0004293423CD911F0004FDFED2E0A09
:1016500020EE201ADFED2D0A19BF31EE601A71EE6F
:10166000200A31EE201A71EE600ABDEEE01A11EE8A
:10167000100A9FED271A00F0030000EEC10A9FED4B
:10168000251A009000EEC10A9FED231A00EEC10A50
:101690009FED221A00EEC10AB1E79FED211A9FEDDE
:1016A000210A10F0020F00EE810A9FED1F1A00EED2
:1016B000801AB7EE000A00EE810A18BFB1EE400AA8
:1016C00008BD00F025FA9AE710EE100A4000B0F1CC
:1016D0007F4F3CBFB7EE000A08BD07D14FF00100B5
:1016E00000F0D0FABDE8084000F002BABDE80840BA
:1016F00000F0FAB9B61F927E336D4C39DA82083C9D
:10170000A0AA2ABE490E494683F9223F0000004B99
:101710000000C93F00A0FD390020A2331A61342C1B
:10172000B93AB2BACA9F2A3DDDFFFFBE10EE100AD9
:10173000C0F3C7517F391729A8BF7047DFED140ADE
:10174000002970EE200A0DDAF5EEC00AF1EE10FA6B
:101750001ADD0028A8BF002016DAB0F1004F18BF2C
:101760000C4811E00C4ACA40104208BF7047F5EE21
:10177000C00AF1EE10FA07DD002804DA4FF4000386
:1017800023FA01F10844904300EE100A704700006C
:10179000CAF24971000080BFFFFF7F0010EE100AFF
:1017A00010B50023A0F50001B1F1FE4F67D200BFD4
:1017B00000F500216FF07E0202EBE15CC1F3025202
:1017C0004FF07E5101EB025100EE901AA0EBCC508D
:1017D00003EB0C0100EE100A51EA020036D030EEA5
:1017E000601A70EE200A9FED3D2A3E4881EE200AE5
:1017F0009FED3B1A60EE000A00EE821A60EE201A9E
:1018000061EE810A784401EE101A00EB82009FED30
:10181000362AB8EEC11AD0ED001A344841EE021A49
:10182000784401EE101A00EB8200B8EEC11A90ED78
:10183000002ADFED2F2A01EE222AB0EE001A72EE06
:10184000200A40EE010A31EEA00A10BDF7EE000AB0
:101850009FED291A30EE600ADFED260A00EE201A0D
:10186000DFED260A60EE001A40EE010A9FED241A11
:1018700000EE201A61EE810A30EE200A10BD4FF012
:101880007F41B1EB400F03D2BDE8104000F02CB90E
:10189000B0F1FF4F08BF10BDB5EEC00AF1EE10FA6F
:1018A00006D2012000F0EEF9BDE8104000F020B9AA
:1018B000B5EEC00AF1EE10FA07D1022000F0E2F90D
:1018C00000F008F9B1EE400A10BDDFED0E0A6FF02E
:1018D000160320EE200A10EE100A69E766F1CC3EEE
:1018E000AAAA2A3F600D00000070313F640D00007D
:1018F000F4FD053821ED423E0A1180BEC1ABAA3E7F
:10190000FFFFFFBE0000004B00B510EE101A2DEDDA
:10191000028B81B0524A6846B2EB410F2ED94FF08C
:10192000E640B0EB410F94BF00204FF0FF30009035
:101930000098B0EE408A00286ADB10F0010F4BD00F
:1019400068EE080A9FED471A9FED470A00EE810AEC
:101950009FED461A10F0020F00EE801AB7EE000A53
:1019600000EE810A02BF01B0BDEC028B00BD00BFDA
:1019700001B0B1EE400ABDEC028B00BD3C4B21F042
:101980000042934241D911F0004FDFED3A0A20EEB8
:10199000201ADFED390A19BF31EE601A71EE200A04
:1019A00031EE201A71EE600ABDEEE01A11EE100A57
:1019B0009FED321A00F0030000EEC10A9FED301ACD
:1019C000009000EEC10A9FED2F1A00EEC10A9FEDB4
:1019D0002E1A00EEC10AABE728EE080A9FED2B1A7B
:1019E000DFED2B0A10F0020F40EE410A9FED291A9D
:1019F00000EE201A61EE000AB0EE480A08EE200A56
:101A0000B6D101B0BDEC028B00BD00F081F88FE7CC
:101A100018EE100A4000B0F17F4F0DD218EE100AF8
:101A2000FFF7C9FD042808BF00F06AF8B0EE480AC5
:101A300001B0BDEC028B00BD09D1012000F022F9FC
:101A400001B0BDEC028B5DF804EB00F051B801B0C1
:101A5000B0EE480ABDEC028B5DF804EB00F044B830
:101A6000B61F927EB93AB2BACA9F2A3DDDFFFFBEC9
:101A7000490E494683F9223F0000004B0000C93F50
:101A800000A0FD390020A2331A61342C336D4C398B
:101A9000DA82083CA0AA2ABE10B52DED028BB1EE69
:101AA000C08A18EE100A20F00040C0F1FF40C00FBD
:101AB0000AD010EE100A20F00040C0F1FF40C00F25
:101AC00004BF012000F0DEF8B0EE480ABDEC028B46
:101AD00010BD0000DFED030AB7EE001A81EE200A08
:101AE000704700000000000030EE000A7047000060
:101AF000DFED020A80EEA00A70470000000000003F
:101B00009FED020A20EE000A70470000000000105E
:101B10002DE9F0014FF07F42B2EB410F9FBF4FF034
:101B2000FF310160BDE8F00170474FF0004242EA2A
:101B30000123C1F3C752783A551112F01F0C434CE0
:101B4000CCF120067C44C1F3C752A2F178024FEADF
:101B5000621204EB820254F8254008BFD2E9015614
:101B600012D0556804FA0CF425FA06F73C4397683E
:101B700005FA0CF527FA06F8D26807FA0CFCF240D1
:101B800045EA08054CEA0206A4FB034CA5FB0352F8
:101B9000A6FB03631D449D4234BF01260026131992
:101BA000334416B1934202D903E0934201D2012299
:101BB00000E00022624402F1200C9206DC0C42EAB2
:101BC000443200EE102A5B03DFED210AF8EEC01A62
:101BD00000EE103A4FEA9C1C11F0004FB8EE400A9C
:101BE000C0F800C020EE201A00EE105ADFED190AEE
:101BF000B8EE400A20EE200A71EE810A70EE800AEB
:101C000010EE902A02F500626FF30B0200EE902AAC
:101C100070EEE11A31EEC11ADFED101A30EE411A02
:101C20009FED0D0A20EE800A01EE210A9FED0C1AAD
:101C300000EE810A04BFBDE8F0017047CCF180518D
:101C40000160BDE8F001B1EE400A7047600A000093
:101C5000000000360000802C22AAFD29DB0FC92FCE
:101C60000000C92F02E008C8121F08C1002AFAD1DB
:101C700070477047002001E001C1121F002AFBD10C
:101C800070470000014908607047000064000020B0
:101C90006421016001220271022141714FF4FA6155
:101CA000C18042F2107181604900C1600021016170
:101CB0004FF416734361816141F28833C361142389
:101CC000038480F8222080F8251080F8241080F802
:101CD00023107047884201DA084670479042FCDDC5
:101CE00010467047884201D2084670479042FCD99E
:101CF00010467047F0B58BB00446584D686A401CDA
:101D000068620027564E41F28833082C7ED2DFE805
:101D100004F09D040C69838D40980BB00822BDE847
:101D2000F04050A1812000F0B3BB262A06D00BB0B2
:101D30002046BDE8F040012100F08CBB002001AA44
:101D40000F5C1754401C80B22628F9D39DF8080078
:101D500008B1082805D90321204600F07BFB0BB011
:101D6000F0BD019808B1984204D90321204600F043
:101D700071FBF4E7262201A93948FEF723FA2878F7
:101D800010B13068FEF72CFC0021204600F062FB09
:101D9000E5E7042A06D00BB02046BDE8F04001215B
:101DA00000F058BB08784A7840EA02208A78C9785F
:101DB000120442EA0161084308B1984206D90BB007
:101DC0002046BDE8F040032100F044BB3060297894
:101DD00009B1FEF705FC0BB02046BDE8F04000213C
:101DE00000F038BB287830B10BB02046BDE8F04099
:101DF000042100F02FBB3068FEF7F2FBFEF722FC57
:101E000001202870EF800021204600E01EE00BB08A
:101E1000BDE8F04000F01EBBFEF728FC2F700BB0B1
:101E20002046BDE8F040002100F014BB2F61AF80D8
:101E3000FFF76EF80BB02046BDE8F040002100F03F
:101E400009BB0BB0BDE8F04000F046BB0BB020462C
:101E5000BDE8F040062100F0FDBA00003800002087
:101E60002D0E0020463430372D53494D0000000020
:101E700010B500F06DFB000A00EE100A9FED031A8A
:101E8000F8EE400A80EE810A10BD0000FFFF7F4B94
:101E900010B52DED028BFFF7EBFFB0EE408AFFF798
:101EA000E7FFF0EE408A18EE100A0E49884201DA88
:101EB0009FED0D8AB0EE480AFFF770FCF8EE000ABD
:101EC00020EE200AFFF7E8FDB0EE408A9FED070AFA
:101ED00028EE800AFFF782FB28EE000ABDEC028B99
:101EE00010BD000095BFD63395BFD633DB0FC94078
:101EF000FEF7DEF9FEF74AFB4FF4E130FEF7E8FBB0
:101F0000FEF74EFAFEF75CFBFEF780F9FEF79EF94E
:101F1000FCE700002DE9F04104462DED048B0D4651
:101F2000DDE90A679FED748A1068002800D101205E
:101F3000D18800EE101AB8EE401ADFED700A81EE7B
:101F4000200ADFF8BCC110EE101A614501DA9FEDDE
:101F50006D0A00EE903AB8EE601A00EE900AF8EEC4
:101F6000601AC1EE210A80EE801A00EE104AF8EEE7
:101F7000400A00EE105AB8EE400AC0EE801A71EE28
:101F8000218A00EE104AF8EE400A9FED5F1A9FED9D
:101F90005F0AB0EE409A00EE819A5079F7EE009A0F
:101FA000D8B3012877D0022874D0FFF771FF5848C2
:101FB000B1EE048A00EB0414D4ED020A40EE080AE4
:101FC000C4ED020AFFF764FFD4ED030A40EE080AED
:101FD000C4ED030A4F489FED501AA168814201DD0C
:101FE00084ED021A4D4A9FED4E0AA168914201D933
:101FF00084ED020A10EE901A814201DD84ED031A8D
:10200000E068904201D984ED030AD4ED028A94ED90
:10201000038A18EE900A434900E029E09FED420A46
:10202000884201DDF0EE408A18EE900A4FF04742F8
:10203000DFED3E0A904201D9F0EE608A18EE100AF8
:10204000884201DDB0EE408A18EE100A904201D9B4
:10205000B0EE608ABDEEE80A10EE100A3080BDEEE8
:10206000C80A10EE100A3880BDEC048BBDE8F08180
:1020700000EE904AF8EE600A60EE808A00EE105A98
:10208000DFED2B0AB8EE400A30EE690A40EE608AB6
:10209000BFE700E01EE0B0EE680AFFF747FB38EE4E
:1020A000C00AF6EE000A9FED231A30EE600A60EED9
:1020B000018A00EE105AB8EE400A30EE691A00EEBE
:1020C000104AB8EE400A01EE600ADFED1B0A20EE6E
:1020D000208A9EE79FED190A28EE800AB0EE408A1A
:1020E000FFF712FC60EE098AB0EE480AFFF776FAB5
:1020F00020EE098A8DE700000000000000007A440D
:102100006F12833A6F12833A000070420000164348
:10211000700800200000964300009643000096C31C
:10212000000096C300FEFF4600FEFF46000000C709
:1021300000009642000016440000F042DB0FC94048
:1021400070B52DED028B0368002B00D10123C488EC
:102150009FED301A00EE104AF8EE400A80EE810A38
:102160002D4D10EE104AAC4201DA9FED2C0A00EE24
:10217000901AB8EE601A00EE903AF8EE601AC1EECE
:10218000210A274901EB021480EE801A94ED010A1E
:1021900031EE008A407918B3012824D0022829D0D2
:1021A000FFF776FED4ED000A9FED1E1A40EE010AFD
:1021B000C4ED000AF5EEC00AF1EE10FA03D29FED6D
:1021C0001A0A84ED000A2068B0F17E5F03DDB7EEE5
:1021D000000A84ED000A94ED000ABDEC028B70BD8C
:1021E000B6EE000AF9E7B0EE480AFFF79FFA38EEBC
:1021F000400AF2E79FED0D0A28EE000AFFF784FB84
:10220000B0EE401AB6EE000AF0EE400A01EE200AE7
:10221000E3E7000000007A446F12833A6F12833ABA
:10222000700800200AD7A33C00000000DB0FC94063
:102230007CB501200190FEF727FA00282DD0204C14
:10224000012803D9A1690844401EA061A288501C3E
:10225000A08001A81B4B009003F20D102169FEF72E
:1022600011FD05462069401C20616069401C6061C9
:10227000002D12D029461348FEF7FCF820B10020AB
:102280000190A069401CA0610F4E96F82200002822
:1022900003D0E28812B1521EE2807CBD2946094873
:1022A000FEF774FAFEF798FAB0F53D7F02D3E069C5
:1022B000401CE06196F82200401EE0807CBD0000DA
:1022C00038000020200D00202D0E0020421C8A42E4
:1022D00001D3002000E0401C80B270472DE9F0419E
:1022E000544C554A214667788B6A00260989A2F525
:1022F00080750E2F76D2DFE807F0070D161B202F12
:10230000343C41484F596367A52801D101206070D2
:10231000BDE8F0815A2803D0A528F9D06670F7E708
:1023200002206070F4E7A070107003206070EFE787
:102330002081507004206070EAE741EA0021218189
:102340009070B1F5807F03D9BDE8F04100F07CB812
:10235000A68105206070DBE76081D0700620607088
:10236000D6E7618941EA0021618110710720607020
:10237000CEE7A062507108206070C9E743EA0021EF
:10238000A162907109206070C2E743EA0041A16236
:10239000D0710A206070BBE743EA0063A362107249
:1023A00009B10B2000E00C206070B1E7A289531C3A
:1023B0009BB2A381A8548B42AAD30C206070A7E7DC
:1023C000E0810D206070A3E7E38943EA0020E0810B
:1023D00000201A4B165C1E54401C80B20928F9D309
:1023E000002005E022E01E182A5C7272401C80B2B8
:1023F0008842F8D309311148FEF7FBFAE189884297
:102400000BD0206A401C20620D48016881F08001D9
:102410000160BDE8F04100F017B822890949A078B1
:10242000FFF768FCBDE8F04100F00EB8BDE8F041F0
:1024300000F00AB838000020530F0020170C0020CD
:1024400014180240530E00200149002048707047C4
:10245000380000203EB50C468DF808008DF8094084
:10246000FDF798FF0346022002A9CDE900105CB1F8
:10247000832100220548FEF780FA0146002902D098
:102480000248FEF783F93EBD8221F2E7FD090020F4
:102490007CB505460E461446FDF77CFFCDE9006489
:1024A0000B4C03462946A288501CA0800948FEF721
:1024B00064FA014600290AD00648FEF767F9FEF7DC
:1024C0008BF9B0F53D7F02D3E069401CE0617CBD33
:1024D00038000020F008002000B589B015480178C8
:1024E0008DF8081014490A798DF809200022ADF8FA
:1024F0000A20096803914169049181690591C169C4
:102500000691016A0791406A0890FDF743FF034670
:102510001C2002A9CDE90010002284210748FEF703
:102520002CFA0146002902D00448FEF72FF909B021
:1025300000BD0000380000202D0E00200A0B0020F6
:10254000012240F227710148FEF7B3BF001001409D
:102550000449086880EA403080EA504080EA401030
:102560000860704734000020000000000030F13D9A
:102570000070643E0000A33E0090CF3E0090F83E05
:1025800000400F3F00E0203F0000000015B78337F8
:10259000CDE37B380EE1C53860F69138AF5F0F3878
:1025A000E1BC3E3823F44739000000006E83F9A2F5
:1025B0002915444ED15727FCC0DD34F5999562DBCF
:1025C0004190433CAB6351FEE82500080000002029
:1025D00068000000641C0008502600086800002005
:1025E000F8120000741C0008007A030A00000000C2
:1025F00000000000010203040607080900000000B3
:102600000102030401020304060708090000000098
:10261000000000000000000000000000EEFFC0A568
:1026200000000000000000000000000000000000AA
:10263000000000000000000000000000000000009A
:10264000000000000000000000000000000000008A
:040000050800018965
:00000001FF
