:020000040800F2
:1000000060130020A10100088D0B0008890B000877
:100010008B0B0008A9070008E91800080000000081
:10002000000000000000000000000000F9120008BD
:10003000790A000800000000F90B0008C913000845
:10004000BB010008BB010008BB010008BB010008A0
:10005000BB010008BB010008BB010008BB01000890
:10006000BB010008BB010008BB010008BB01000880
:10007000BB010008BB010008BB010008AD07000878
:10008000BB010008BB010008BB010008BB01000860
:10009000BB010008BB010008BB010008BB01000850
:1000A000BB010008BB010008BB010008BB01000840
:1000B00035140008BB010008BB010008BB010008A3
:1000C000BB010008BB010008BB010008BB01000820
:1000D000BB010008ED160008BB010008BB010008C9
:1000E000BB010008BB010008BB010008BB01000800
:1000F000BB010008BB010008BB010008BB010008F0
:10010000BB010008BB010008BB010008BB010008DF
:10011000BB010008BB010008BB010008BB010008CF
:10012000BB010008BB010008BB010008BB010008BF
:10013000BB010008BB010008BB010008BB010008AF
:10014000BB010008BB010008BB010008BB0100089F
:10015000BB010008BB010008BB010008BB0100088F
:10016000BB010008BB010008BB010008BB0100087F
:10017000BB010008BB010008BB010008BB0100086F
:10018000BB010008BB010008DFF810D000F02CF81C
:100190000048004705250008AFF3008060130020E9
:1001A0000648804706480047FEE7FEE7FEE7FEE711
:1001B000FEE7FEE7FEE7FEE7FEE7FEE7D9130008ED
:1001C0008901000840EA01039B0703D009E008C940
:1001D000121F08C0042AFAD203E011F8013B00F80C
:1001E000013B521EF9D27047064C074D06E0E0680D
:1001F00040F0010394E8070098471034AC42F6D36E
:10020000FFF7C6FFBC290008DC29000870B51548B7
:1002100002F062F800F0BCFE124800F073FE02F03B
:1002200073FA00F0CFF80F48006800F0B3F900F05F
:10023000E3F90D48012101700021C18000F02CF884
:100240000A4D80242C80282000F086F8AE1C3480D3
:100250003C2000F081F82C80282000F07DF83480CC
:1002600070BD0000300E00204C0000201818024025
:1002700008B503E09DF8000002F090F9684600F030
:10028000E7F90028F6D103480078002801D002F0F1
:100290004BF908BD4C0000201CB50121402000F0A6
:1002A00005FD8020009001208DF8040000208DF8CD
:1002B000060002208DF807008DF80500044C694601
:1002C000204600F011FC8021204600F05BFC1CBDA4
:1002D0000018024008B500F02FFD012000F0D6FD07
:1002E000212000F0A5FD0028FAD0052000F0F6FB43
:1002F000012000F0E3FB012000F0D0FB012000F022
:10030000BDFB002000F0B8FD4FF4A05000F0C4FD8C
:100310004FF4805000F0CAFD0720009002234FF4F4
:10032000A8721021002000F0D1FD012000F0C8FDCE
:10033000392000F07DFD0028FAD0022000F0D8FD21
:1003400000F092FD0828FBD102490148086008BD71
:10035000007A030A0000002000B5024600F02CF8E5
:10036000014600F029F8401A9042FAD300BD00007F
:1003700010B50E494FF0E02308689A690C68A04256
:10038000FAD10B494FF47A730968B1FBF3F39A1A67
:10039000084B521EB1FBF3F1B2FBF1F100EB40024E
:1003A000C2EBC01001EBC00010BD00002400002013
:1003B0000000002040420F00014800687047000024
:1003C0002400002010B50C4C0021204600F03AFA21
:1003D000204600F0D9FA0028FAD100F0BBFD06490A
:1003E0007039C867B621204600F044FB2046BDE8BE
:1003F0001040012100F026BA7060024001480068F8
:100400007047000028000020F0B597B001210220BD
:1004100000F04CFC0121042000F048FC012188037D
:1004200000F052FC0121480500F040FC404F05223D
:100430000C21384600F096FB05220D21384600F0CD
:1004400091FB05220F21384600F08CFB394E052226
:100450000221304600F086FB4FF430401590022117
:100460008DF8581000248DF85A4001258DF85B5006
:100470008DF8591015A9384600F036FB0421159166
:1004800015A9304600F030FBADF84040ADF84240D1
:10049000ADF84440ADF84640ADF84840ADF84A40AC
:1004A000ADF84C40ADF84E400720ADF85000224E5C
:1004B00010A9304600F004FF204F384600F0CEF976
:1004C00001941D480C300290039440200490B62003
:1004D00005900694A8020790089409940A94C00114
:1004E0000B900C940D950E940F9401A9384600F0D2
:1004F00097FA01221021384600F078FA0F208DF883
:1005000000008DF801508DF802408DF803506846C8
:1005100000F03EFB304600F0D1FE012202213046C1
:1005200000F0C2FE0121304600F0B2FE17B0F0BD6F
:1005300000040240000802400038004070600240A1
:100540000A484FF47A710068B0FBF1F0401EB0F138
:10055000807F09D24FF0E0214861054AF0201070F9
:10056000002088610720086170470000000000201B
:1005700023ED00E010B50121084600F0A5FB044979
:10058000202008704FF0E021C005C1F8000110BD27
:100590001CE400E03EB50446002C00D1012441F2E9
:1005A0008830844200D90446114884604FF0804569
:1005B000284600F06FFF0020ADF80000ADF8020003
:1005C0000C49B1FBF4F1491E0191ADF808008DF81A
:1005D0000A006946284601F04BF80121284600F040
:1005E00047FF01221146284601F036F83EBD0000C3
:1005F0002C00002000BD010510B5084800214180F5
:10060000012101704FF080440021204601F02EF8B6
:100610002046BDE81040012100F030BF2C00002032
:1006200010B500214FF0804000F028FF0248002163
:100630000170418010BD00002C00002072B60349FB
:10064000488800224A8062B6704700002C000020D3
:1006500010B50B4C21886288914201D1002010BD59
:1006600062880749091D515C0170BFF35F8F608884
:100670004FF4807101F08AFF6080012010BD0000FE
:1006800078040020F0B587B006462A4900244C8043
:100690000C8001F20440448004800121084600F0EF
:1006A00005FB0121102000F02BFB234F072209211D
:1006B000384600F057FA07220A21384600F052FA6D
:1006C0004FF4C060059002218DF818108DF81A4083
:1006D00001258DF81B508DF8191005A9384600F03A
:1006E00003FA0196ADF80840ADF80A40ADF80C40A9
:1006F000ADF810400C20ADF80E00104E01A93046A8
:1007000001F08CF8012240F22551304601F06BF8DF
:1007100025218DF800108DF801508DF802408DF8DC
:100720000350684600F034FA0121304601F028F801
:1007300007B0F0BD7400002000000240001001402E
:100740002DE9F04780460F46002F1BD000240E4DA8
:100750004FF480692E1D0FE02888494601F016FFEE
:1007600069888142FCD018F804102A889155BFF39B
:100770005F8F2880641CA4B2BC42EDD3BDE8F04773
:1007800002F09AB8BDE8F08774000020054801889F
:100790004088081A00B2002801DA00F5806080B2B3
:1007A0007047000074000020FEE7000070B5164D91
:1007B000164C2946204600F0EFF8002822D02946A2
:1007C000204600F029F812490A68521C0A600021EC
:1007D000204600F037F8204600F0D6F80028FAD17D
:1007E00000F0B8FB09497039C867B621204600F00F
:1007F00041F90121204600F025F806480088054807
:10080000001D008870BD0000208000207060024044
:100810002800002008380040074A904201D20748CB
:1008200001E005481038064A8B0001EA020101D5B3
:10083000C1607047816070471064024000600240F0
:100840007D0F7D0F002904D0016841F00101016096
:100850007047016821F00101016070472DE9F04304
:10086000016821F0010101600021016041608160A7
:10087000C1600161212141613E493E4A10394FF07A
:100880003D08904203D1C1F80880BDE8F083394AA1
:100890004FF474651832904201D18D60F5E7354A06
:1008A0004FF474163032904201D18E60EDE7314A38
:1008B0004FF074674832904201D18F60E5E72D4BCD
:1008C0002D4A6033984201D1CA60DEE7294C2B4B98
:1008D0007834A04201D1CB60D7E7DFF898C0284C2C
:1008E0000CF1900C604501D1CC60CEE7DFF884902C
:1008F0004FF03D5C09F1A809484502D1C1F80CC090
:10090000C3E72049DFF87C900839484502D1C1F897
:100910000080BAE7DFF86C8008F11808404501D183
:100920000D60B2E7174D3035A84201D10E60ACE73B
:10093000144D4835A84201D10F60A6E7114D114969
:100940006035091FA84201D10A609EE70D4A78323E
:10095000904201D10B6098E70A4A9032904201D14F
:100960000C6092E7074AA83290428ED1C1F800C0CD
:100970008BE70000106002403D000020400F002087
:1009800000003D2010640240014600200968C907AC
:1009900000D001207047000030B500240F4A90427B
:1009A00001D20F4A01E00D4A103A0E4B194205D010
:1009B0001E2303EAD12503682B4002E0406900F0C2
:1009C0008003880001D5506800E01068064A104096
:1009D000084201D003B10124204630BD106402401A
:1009E000006002403C0F3C0F7D0F7D0F0B0609D5C8
:1009F00022B1436943F08003436103E0436923F07C
:100A000080034361802905D001F01E011AB10268FC
:100A10000A430260704702688A4302607047000020
:100A200030B50368124A1340CC680A682243D1E902
:100A300005452C432243CC6922430C6A22434C6A6D
:100A400022438C6A22434C6B22438C6B22431A4311
:100A50000260426922F00703D1E90B2422431A43C2
:100A600042610A6942604A6882608968C16030BD3B
:100A70003F801CF041607047704700000649002825
:100A800004D0086840F4806008607047086820F46B
:100A90008060086070470000003C02400649002862
:100AA00004D0086840F4007008607047086820F4BB
:100AB0000070086070470000003C024006490028B2
:100AC00004D0086840F4807008607047086820F41B
:100AD0008070086070470000003C024001490870C7
:100AE00070470000003C02402DE9F0410022012740
:100AF0004FF0030C07FA02F50B682B40AB422CD1E8
:100B0000066853000CFA03F4A64306600E79D0F889
:100B100000809E4046EA080606600E79012E01D04C
:100B2000022E12D18668A64386604E79D0F80880DE
:100B30009E4046EA080686604668AE4346604568C1
:100B40008E799640B6B235434560C568A543C56009
:100B5000CC799C40C3681C43C460521C102AC9D382
:100B6000BDE8F08110B54B07DB0E9A40C90800EBD9
:100B70008100016A0F249C40A1430162016A114374
:100B8000016210BD41837047FEE7FEE77047000039
:100B900030B50F23C27801250178002A1FD0154AED
:100BA000126802F4E062C2F5E062C2F30722C2F109
:100BB0000404D3404278A24084781C4014432201AC
:100BC00001F1E02181F80024007800F01F018D4040
:100BD0004009800000F1E020C0F8005130BD01F074
:100BE0001F0085404809800000F1E020C0F88051D6
:100BF00030BD00000CED00E07047F0B50446DDE9C3
:100C00000576002C04D0B6F5807F03D90020F0BD16
:100C10000020F0BD06B1A7B1A52020705A20607059
:100C2000A170E670300A20716271100AA071E37140
:100C3000180A2072180C6072180E0B25A072002082
:100C400008E00020F0BD29463A5C6D1CADB262544C
:100C5000401C80B2B042F6D306F10901A01C00F09E
:100C600008F8691C89B26055020A481C80B26254B7
:100C7000F0BDF0B506464FF6FF70002341F22105A6
:100C8000044610E0F25C80EA02200022070403D54B
:100C900085EA400080B201E004EA4000521CD2B272
:100CA000082AF3D35B1C8B42ECD3F0BD054A002924
:100CB00003D01168014311607047116881431160CE
:100CC0007047000030380240054A002903D01168FF
:100CD0000143116070471168814311607047000043
:100CE00040380240054A002903D0116801431160D1
:100CF000704711688143116070470000203802403E
:100D0000054A002903D0116801431160704711683A
:100D1000814311607047000044380240054A0029B1
:100D200003D011680143116070471168814311605D
:100D300070470000243802401048016841F001016A
:100D400001600E4A00210832116002680C4B1A4003
:100D50000260031D0B4A1A60084B0B4A84331A6069
:100D6000084A103A1B1D1A60026822F480220260B1
:100D700002480C300160181D0160704700380240C5
:100D8000FFFFF6EA103000240030002070B5244B3D
:100D9000196801F00C01234C00291ED0224E0429B1
:100DA0001DD008291DD00460196801F0F00109095F
:100DB0001E4A545C0168E14041601C6804F4E05440
:100DC000A40A145D21FA04F484601B6803F46043F0
:100DD0005B0BD25CD140C16070BD0460E4E706608B
:100DE000E2E70F4A121F1168C1F38055116801F044
:100DF0003F0135B1B6FBF1F11468C4F388146143C7
:100E000005E0B4FBF1F11468C4F38814614312687F
:100E1000C2F30142521C5200B1FBF2F10160C3E780
:100E2000083802400024F40040787D0114000020BE
:100E300002460020510901290BD002290DD0094991
:100E4000096802F01F02012393400B4200D00120E9
:100E50007047044974390968F3E70249091F0968B2
:100E6000EFE70000743802400248006800F00C0010
:100E70007047000008380240034A116821F0F00171
:100E800001431160704700000838024001490860C2
:100E90007047000000004742034A116821F4E05106
:100EA000014311607047000008380240034A11688E
:100EB00021F4604141EAC0001060704708380240E8
:100EC00001490866704700000000474210B5029CC7
:100ED00041EA82114FF0FF3202EB530241EA024134
:100EE000014341EA04600149086010BD0438024032
:100EF000034A116821F003010143116070470000AB
:100F00000838024010B5114C0279E2704179217124
:100F100001682161002901D164212161032A07D0E0
:100F20000B49104601F0F6FBFFF722FAA06010BD56
:100F3000074982680A60C2684A6002698A60426939
:100F4000CA6082690A61C0694861EDE73800002023
:100F50007C080020044840785B2110FB01F0034925
:100F600001EB40007047000038000020940800208A
:100F700006490A6802604A6842608A688260CA68F4
:100F8000C2600A6902614969416170477C080020BA
:100F900010B50D48002100244454491CC9B2B6299B
:100FA000FAD3A52101705A214170448004710521B2
:100FB0004171C0F80640448100F0FCF903484470D8
:100FC00001210170C48010BD940800203800002069
:100FD00010B5064C0020E080E078032802D00449D8
:100FE00001F098FBFFF7C4F9A06010BD38000020A5
:100FF0007C0800202DE9F05F2DED0A8BDFF864926C
:1010000099F80470D9F80810441AC9F808009648ED
:10101000844200D9044600EE104AB8EE400ADFEDE3
:10102000930A20EE200A01F0E5F899F800005B2110
:1010300010FB01F08E4901EB4005002000212954EE
:10104000401CC0B2B628FAD3A52028705A20687078
:10105000B9F8060068802F7105226A71C5F806404C
:101060006981401CA9F80600DFF804A2AAF1180A59
:101070009AED000ADAED010A9AED028A20EE000AE2
:1010800000EEA00A00F0B8FF10EE100ADFF8E4B19D
:101090009FED79BA584501DAB0EE4B0A20EE000A0E
:1010A00008EE080A00F0A8FFF0EE40AA1AEE900A37
:1010B000584501DAF0EE4BAA0024DFED70BA9FED3F
:1010C00070CA00266F489AED000A00EB8400D0ED4C
:1010D000000A30EE60AA6B489AED010A143000EB6A
:1010E0008400D0ED000A30EE609A66489AED020A5C
:1010F000283000EB8400D0ED000A70EE609A2AEEF2
:101100000A0A09EE090A00F077FFF0EE408AB0EE15
:10111000680A10EE100A584501DAF0EE4B8A28EE04
:10112000A80A09EEA90A00F067FFB0EE408A18EE9F
:10113000100A584501DAB0EE4B8AF80712D08CB18C
:10114000012638EE6A0AC0EE2BCA01F0ABF940EE78
:101150000CCAC4EBC40000EB400028441CEE901AFB
:10116000C0F80D10B80710D546F00206C8EE2BCA1D
:1011700001F098F940EE0CCAC4EBC40000EB40004B
:1011800028441CEE901AC0F81110780729D546F0B3
:101190000406F0EE4A0AB0EE490A00F0B9FBB0EEE0
:1011A000409A01F07FF99FED38AAC4EBC40000EB30
:1011B000400000EE0A9A00EB050819EE101AC8F874
:1011C0001510F0EE680AB0EE690A00F0A1FBF0EE2F
:1011D000408A01F067F940EE0A8A18EE900AC8F8D2
:1011E000190038071AD546F00806B0EE480A00F094
:1011F0008DFD9FED268AF3EE040A00EE608A01F071
:1012000051F9F0EE000AC4EBC40000EE208A00EBB6
:101210004000284418EE101AC0F81D10C4EBC4009A
:1012200000EB400028440673641CE4B2052CFFF474
:1012300048AF284600F0BEF872B699F8000089F869
:10124000010099F80000C0F1010089F8000062B6C1
:1012500099F80200401C89F80200BDEC0A8BBDE839
:10126000F09F00003800002040420F00BD37863557
:10127000940800206F12833A6F12833AC2F38E4DA6
:101280005F700931E028000835FA8E3C00000CC27E
:10129000002904D0018841F0400101807047018895
:1012A00021F0400101807047002A03D082880A4360
:1012B0008280704782888A43828070478089704725
:1012C00030B5028802F441530A884C88CD88224305
:1012D0008C882C4322430C8922434C8922438C89DD
:1012E0002243CC8922431A430280828B22F400627B
:1012F0008283098A018230BD704700000CB500224C
:10130000019200922749086840F4803008604FF449
:10131000A043086800F4003000900198401C019040
:10132000009810B901989842F3D10868800302D55B
:101330000120009000E000920098012831D1194866
:101340004030026842F0805202601748026842F45E
:10135000404202601348083002680260026842F4AA
:1013600000420260026842F4A0520260021F0F4B6A
:1013700013600A6842F080720A600A689201FCD524
:101380000B4A40F205711160016821F00301016010
:10139000016841F0020101600168C1F38101022985
:1013A000FAD10CBD003802400070004019544007CB
:1013B000003C024010B50446B4212046FFF759FC1A
:1013C000A4F8B40010BD000002480168491C016087
:1013D000704700002400002010B51248016841F455
:1013E000700101601048016841F0010101600E4A7E
:1013F00000210832116002680C4B1A400260031D84
:101400000B4A1A60026822F48022026006480C30FF
:101410000160FFF773FF03494FF0006080390860F7
:1014200010BD000088ED00E000380240FFFFF6FE2E
:101430001030002410B501218C07204600F000F97F
:1014400000280DD00121204600F015F8074801784A
:10145000002905D04188202903D24188491C4180B8
:1014600010BD4168491C416010BD00002C000020E7
:10147000C94301827047C94301827047002904D0E3
:10148000018841F0010101807047018821F00101CC
:101490000180704710B55D49884209D10121084695
:1014A000FFF73CFC0021BDE810400120FFF736BCEF
:1014B000B0F1804F0CD05649884213D1012102204F
:1014C000FFF710FC0021BDE810400220FFF70ABC26
:1014D00001210846FFF706FC0021BDE8104001206D
:1014E000FFF700BC4B49884209D101210420FFF7D6
:1014F000F9FB0021BDE810400420FFF7F3BB46498B
:10150000884209D101210820FFF7ECFB0021BDE84A
:1015100010400820FFF7E6BB4049884209D101216D
:101520001020FFF7DFFB0021BDE810401020FFF77F
:10153000D9BB3B49884209D101212020FFF7D2FBCA
:101540000021BDE810402020FFF7CCBB3549884280
:1015500009D101210220FFF7E1FB0021BDE8104085
:101560000220FFF7DBBB304988420AD101210C047D
:101570002046FFF7D3FB2046BDE810400021FFF7CF
:10158000CDBB2A4988420AD101214C042046FFF7ED
:10159000C5FB2046BDE810400021FFF7BFBB244932
:1015A00088420AD101218C042046FFF7B7FB204670
:1015B000BDE810400021FFF7B1BB1E49884209D1A8
:1015C00001214020FFF78EFB0021BDE810404020A4
:1015D000FFF788BB1849884209D101218020FFF715
:1015E00081FB0021BDE810408020FFF77BBB134941
:1015F00088420AD1841501212046FFF773FB20465B
:10160000BDE810400021FFF76DBB10BD0000014098
:101610000004004000080040000C004000100040A2
:10162000001400400004014000400140004401401B
:101630000048014000180040001C0040002000400D
:1016400002460020138A0B4092890A40002B02D0E8
:10165000002A00D001207047002A03D082890A4363
:101660008281704782898A438281704741627047D4
:1016700030B50288164C174DA0420DD0A8420BD0B1
:10168000B0F1804F08D0144B984205D0134B9842CC
:1016900002D0134B984203D122F070034A881A43B8
:1016A000104B984206D0104B984203D022F440735E
:1016B0000A891A4302804A68C2620A880285A042E7
:1016C00001D0A84201D1897A01860121818230BDF1
:1016D00000000140000401400004004000080040F8
:1016E000000C0040001000400014004070B5214E76
:1016F00040F22551304600F056F888B1304600F0EF
:10170000EBF8C4B21C4D2888B11500F03FFF698882
:10171000814205D02A88291D5454BFF35F8F288049
:1017200040F227752946304600F03DF8C0B1134C11
:101730002088618888420ED06188201D095C30466F
:1017400000F0CEF8BFF35F8F60884FF4806100F047
:101750001DFF608004E000222946304600F043F877
:1017600034460821204600F017F8002801D0A08850
:10177000208870BD00100140780400207400002013
:10178000002904D0818941F4005181817047818909
:1017900021F40051818170470246002012880A42DC
:1017A00000D00120704770B5002440F66A12C1F3E2
:1017B000421301F01F05012606FA05F2012B0CD099
:1017C000022B0DD0838A1340090A8E4000883040D6
:1017D0000BB100B10124204670BD83891340F3E7AB
:1017E000038A1340F0E710B540F66A13C1F34213C1
:1017F00001F01F040121A140012B07D0022B07D0CB
:1018000014303AB102680A43026010BD0C30F8E7A8
:101810001030F6E702688A43026010BD7FB50446C7
:101820000D46208A20F44051E88808432082A08990
:1018300041F20C618843A9882A8911436A890243CD
:101840001143A181A08A20F44071A8890843A08295
:101850006846FFF79BFA1E48844202D01D48844226
:1018600001D1039800E00298A189090408D500EB92
:10187000C00101EB001029684900B0FBF1F007E05E
:1018800000EBC00101EB001029688900B0FBF1F00A
:101890006422B0FBF2F109010B096FF018056B43EC
:1018A00000EB8300A3891D044FF0320307D503EB3F
:1018B000C000B0FBF2F000F00700084306E003EBC5
:1018C0000010B0FBF2F000F00F00084320817FBD54
:1018D00000100140001401408088C0F308007047E8
:1018E000C1F3080181807047FEE74100080218BF7C
:1018F00004200A0E18BF40F001004FF07F4232EA88
:10190000010108BF40F00200012808BF0520704710
:1019100070B54FF068422DED048BF0EE408A18EE62
:10192000900AB0EE608A18EE101A02EB4003B3F191
:10193000654F3CBF02EB4102B2F1654F7DD200BF63
:10194000C0F3C753C1F3C7529A1A1B2A09DD10F01E
:10195000004F14BF9FED830A9FED830ABDEC048BFB
:1019600070BD12F11A0F36DA11F0004F09D010F0E5
:10197000004F0CBF9FED7D0A9FED7D0ABDEC048BEF
:1019800070BD88EE889A19EE100AFFF7AEFF0428A2
:1019900008BF00F067FB18EE900AFFF7A6FF0546A8
:1019A00018EE100AFFF7A1FF044619EE100AFFF720
:1019B0009CFF042D18BF052D08D1042C18BF052C41
:1019C00004D1002804BF022000F00EFCB0EE490A4A
:1019D000BDEC048B70BD4200B2EB410F3AD910F060
:1019E000004F19BFDFED630A9FED630ADFED630A65
:1019F0009FED630AB0EE481A0A46B1EE688A80F09D
:101A00000041F0EE418A10460A1A5200B2F1807F7E
:101A100034D2484010F0004FDFED5A1A9FED5A2A99
:101A20001DBFBEEE001A70EEE10A30EE420AB6EEBD
:101A3000001A08BF70EEA10A00E040E008BF30EED7
:101A4000020AB0EE682A01EE482A08EE818AC2EE48
:101A5000081A15E011F0004F04BF9FED4C0AF0EE9C
:101A6000400AD1D010F0004F19BFDFED490A9FEDB9
:101A7000490ADFED490A9FED490AC5E7C8EE881A11
:101A800021EEA11A9FED462ADFED462A41EE022AF9
:101A90009FED452A01EE222ADFED442A41EE022A7B
:101AA0009FED432ABDEC048B01EE222A21EE811A20
:101AB00001EE020A30EE210A30EE200A70BD4FF02E
:101AC0007F42B2EB400F28BFB2EB410F09D2F0EEDC
:101AD000480AB0EE680ABDEC048BBDE8704000F027
:101AE000B6BA40EA01035B0008BF41F0FF410BD0EA
:101AF000B2EB400F08BFB2EB410F08D120F080409D
:101B000008EE900A21F0804108EE101A18E7B2EBB7
:101B1000400F12BF5FEA410340F0FF4001F0004177
:101B20003FF40EAFB2EB410F12BF5FEA400200F08C
:101B3000004041F0FF413FF403AF4A0092EA400306
:101B40003FF5FEAE002AACBF9FED1A0A9FED1A0AC0
:101B500068EE808A28EE008A18EE900A18EE101AB5
:101B6000EEE60000DB0FC9BFDB0FC93FDB0F4940CA
:101B7000DB0F49C00000C9BF22AAFDB90000C93F60
:101B800022AAFD390060ED3EC30ACE3700000000F6
:101B9000000049C022AA7DBA0000494022AA7D3A2D
:101BA0002DAD65BD8FB8D53D0FB511BE61C84C3E9A
:101BB000A8AAAABE0000804F0000802F10EE101AC5
:101BC00008B5444A6846B2EB410F28D94FF0E640C9
:101BD000B0EB410F94BF00204FF0FF300090009811
:101BE000002861DB60EE000A10F0010F45D010F014
:101BF000020FDFED391A9FED391A00EEE11ADFED21
:101C0000381A40EE811A21EEA01AF0EE400A40EE9A
:101C1000010A08BFF1EE600AB0EE600A08BD314B60
:101C200021F0004293423CD911F0004FDFED2E0A23
:101C300020EE201ADFED2D0A19BF31EE601A71EE89
:101C4000200A31EE201A71EE600ABDEEE01A11EEA4
:101C5000100A9FED271A00F0030000EEC10A9FED65
:101C6000251A009000EEC10A9FED231A00EEC10A6A
:101C70009FED221A00EEC10AB1E79FED211A9FEDF8
:101C8000210A10F0020F00EE810A9FED1F1A00EEEC
:101C9000801AB7EE000A00EE810A18BFB1EE400AC2
:101CA00008BD00F0E7F99AE710EE100A4000B0F125
:101CB0007F4F3CBFB7EE000A08BD07D14FF00100CF
:101CC00000F092FABDE8084000F0C4B9BDE8084051
:101CD00000F0BAB9B61F927E336D4C39DA82083CF7
:101CE000A0AA2ABE490E494683F9223F0000004BB4
:101CF0000000C93F00A0FD390020A2331A61342C36
:101D0000B93AB2BACA9F2A3DDDFFFFBE10EE100AF3
:101D100010B5A0F500014FF0000CB1F1FE4F6CD2F0
:101D200000F500216FF07E0202EBE153C1F3025295
:101D30004FF07E5101EB025100EE901AA0EBC35020
:101D40000CEB030100EE100A51EA020036D030EE2F
:101D5000601A30EE200AC1EE000A20EEA00A60EE02
:101D6000801A9FED3D2A9FED3D1A3D48DFED3F2A49
:101D700000EE021A784400EB82009FED3A2A21EE31
:101D8000810A01EE101AD0ED001A3748B8EEC11AD8
:101D9000784400EB820041EE021A01EE101A90ED39
:101DA000002AB8EEC11A01EE222A9FED311A32EE56
:101DB000000A00EE810A31EE800A10BDF7EE000A3B
:101DC0009FED2D1A70EE600A9FED2A0A00EE801A30
:101DD0009FED2A0A60EEA01A00EE810A9FED281AF4
:101DE00000EE801A21EE810A9FED261A00EE810A8C
:101DF000B5EE0B1A00EE810A10BD4FF07F41B1EB3A
:101E0000400F03D2BDE8104000F01EB9B0F1FF4F03
:101E100008BF10BDB5EEC00AF1EE10FA06D20120DF
:101E200000F0E2F9BDE8104000F014B9B5EEC00AC8
:101E3000F1EE10FA07D1022000F0D6F900F0FAF81E
:101E4000B1EE400A10BDDFED100A6FF0160C20EE67
:101E5000200A10EE100A63E7DE02323E3B3D943E5C
:101E6000A40B000000209A3EA80B0000FC849A36C8
:101E7000D95B5E3F924FA93D7279DEBD2D3E143E87
:101E8000D85B5EBE157B4B3C0000004B10EE100A89
:101E900010B50023A0F50001B1F1FE4F67D200BFDD
:101EA00000F500216FF07E0202EBE15CC1F302520B
:101EB0004FF07E5101EB025100EE901AA0EBCC5096
:101EC00003EB0C0100EE100A51EA020036D030EEAE
:101ED000601A70EE200A9FED3D2A3E4881EE200AEE
:101EE0009FED3B1A60EE000A00EE821A60EE201AA7
:101EF00061EE810A784401EE101A00EB82009FED3A
:101F0000362AB8EEC11AD0ED001A344841EE021A52
:101F1000784401EE101A00EB8200B8EEC11A90ED81
:101F2000002ADFED2F2A01EE222AB0EE001A72EE0F
:101F3000200A40EE010A31EEA00A10BDF7EE000AB9
:101F40009FED291A30EE600ADFED260A00EE201A16
:101F5000DFED260A60EE001A40EE010A9FED241A1A
:101F600000EE201A61EE810A30EE200A10BD4FF01B
:101F70007F41B1EB400F03D2BDE8104000F064B8E0
:101F8000B0F1FF4F08BF10BDB5EEC00AF1EE10FA78
:101F900006D2012000F028F9BDE8104000F05AB840
:101FA000B5EEC00AF1EE10FA07D1022000F01CF9DC
:101FB00000F040F8B1EE400A10BDDFED0E0A6FF000
:101FC000160320EE200A10EE100A69E766F1CC3EF7
:101FD000AAAA2A3F640A00000070313F680A000084
:101FE000F4FD053821ED423E0A1180BEC1ABAA3E88
:101FF000FFFFFFBE0000004B10B52DED028BB1EED0
:10200000C08A18EE100A20F00040C0F1FF40C00F57
:102010000AD010EE100A20F00040C0F1FF40C00FBF
:1020200004BF012000F0E0F8B0EE480ABDEC028BDE
:1020300010BD0000DFED030AB7EE001A81EE200AA2
:10204000704700000000000030EE000A704730EEDC
:10205000200A7047DFED020A80EEA00A70470000F8
:10206000000000009FED020A20EE000A7047000009
:10207000000000102DE9F0014FF07F42B2EB410F5C
:102080009FBF4FF0FF310160BDE8F00170474FF096
:10209000004242EA0123C1F3C752783A551112F0C7
:1020A0001F0C434CCCF120067C44C1F3C752A2F173
:1020B00078024FEA621204EB820254F8254008BF0E
:1020C000D2E9015612D0556804FA0CF425FA06F745
:1020D0003C43976805FA0CF527FA06F8D26807FA28
:1020E0000CFCF24045EA08054CEA0206A4FB034C4E
:1020F000A5FB0352A6FB03631D449D4234BF01268A
:1021000000261319334416B1934202D903E09342D7
:1021100001D2012200E00022624402F1200C92066A
:10212000DC0C42EA443200EE102A5B03DFED210AA8
:10213000F8EEC01A00EE103A4FEA9C1C11F0004F66
:10214000B8EE400AC0F800C020EE201A00EE105A87
:10215000DFED190AB8EE400A20EE200A71EE810A7E
:1021600070EE800A10EE902A02F500626FF30B0207
:1021700000EE902A70EEE11A31EEC11ADFED101A6E
:1021800030EE411A9FED0D0A20EE800A01EE210A81
:102190009FED0C1A00EE810A04BFBDE8F001704704
:1021A000CCF180510160BDE8F001B1EE400A70470A
:1021B000F0080000000000360000802C22AAFD2953
:1021C000DB0FC92F0000C92F02E008C8121F08C189
:1021D000002AFAD170477047002001E001C1121FA8
:1021E000002AFBD1704700000149086070470000D9
:1021F000700000203248D0ED000A90ED032A42EE34
:10220000000AC0ED000A90ED011AD0ED042A02EE9A
:10221000801A80ED011AD0ED021A90ED053A43EED6
:10222000001AC0ED021A10EE901A264ADFED260AB7
:10223000914205DDC0ED000AB1EE420A80ED030ACD
:10224000224B01689FED220A994207D980ED000ACE
:1022500090ED032AB1EE422A80ED032A11EE101A06
:10226000914205DDC0ED010AF1EE620AC0ED040AFB
:102270004168994207D980ED010A90ED040AB1EE58
:10228000400A80ED040A11EE901A124A914207DDCD
:10229000B3EE040A80ED020AB1EE430A80ED050AAE
:1022A0008168B1F17C5F09DAB6EE000A80ED020ABE
:1022B00090ED050AB1EE400A80ED050A7047000076
:1022C0007C0800200000204200002042000020C2C4
:1022D000000020C20000A0416421016000210171C2
:1022E0000F2242710A228271C1714FF082418160D6
:1022F0000549C16005490161054941614FF07D51C2
:1023000081610449C1617047000020410000C04064
:102310009A99993FCDCC4C3EF0B589B00446544DC6
:10232000E869401CE8610027524E4FF47A73082C8C
:102330007ED2DFE804F096040C6B7C88429109B0F1
:102340000822BDE8F0404CA1812000F059BA202AB3
:1023500006D009B02046BDE8F040012100F032BAB5
:10236000002001AA0F5C1754401C80B22028F9D32A
:10237000019808B1984205D90321204600F022FABD
:1023800009B0F0BD9DF80800032804D903212046B8
:1023900000F018FAF4E7202201A93648FDF712FFF1
:1023A0003448FEF7AFFD287810B13068FEF7F2F838
:1023B0000021204600F006FAE2E7042A06D009B020
:1023C0002046BDE8F040012100F0FCB908784A78C9
:1023D00040EA02208A78C978120442EA016108437F
:1023E00008B1984206D909B02046BDE8F040032163
:1023F00000F0E8B93060297809B1FEF7CBF809B0F0
:102400002046BDE8F040002100F0DCB9287838B95A
:102410003068FEF7BFF8FEF7EFF801202870EF8074
:1024200009B02046BDE8F040002100F0CBB900E043
:1024300017E0FEF7F5F82F7009B02046BDE8F04030
:10244000002100F0BFB9FEF7C3FD09B02046BDE88A
:10245000F040002100F0B6B909B0BDE8F04000F04E
:10246000F3B909B02046BDE8F040062100F0AAB952
:102470004C000020300E0020463430372D53494D9B
:102480000000000010B500F01FFA000A00EE100A6C
:102490009FED031AF8EE400A80EE810A10BD00009D
:1024A000FFFF7F4B10B52DED028BFFF7EBFFB0EE7A
:1024B000408AFFF7E7FFF0EE408A18EE100A0E4957
:1024C000884201DA9FED0D8AB0EE480AFFF7DEFC84
:1024D000F8EE000A20EE200AFFF78EFDB0EE408AEB
:1024E0009FED070A28EE800AFFF768FB28EE000A36
:1024F000BDEC028B10BD000095BFD63395BFD6331F
:10250000DB0FC940FDF7E6FEFEF71AF84FF4E130A5
:10251000FEF7B8F8FDF778FFFEF72CF8FDF776FE2A
:10252000FDF7A6FEFCE7000030B587B0FEF786F8A1
:10253000002819D0FDF71CFFFEF75CFD114C206947
:10254000401C2061C00707D101A8FEF711FD182229
:1025500001A9872000F054F90B4DA879002803D079
:10256000E08818B1401EE08007B030BDFEF7F2FCF5
:102570000146B622852000F043F9A879401EE0808C
:10258000F2E700004C000020300E0020421C8A427E
:1025900001D3002000E0401C80B270472DE9F041DB
:1025A000544C554A214667780B6A00260989A2F5E2
:1025B00080750E2F76D2DFE807F0070D161B202F4F
:1025C000343C41484F596367A52801D10120607010
:1025D000BDE8F0815A2803D0A528F9D06670F7E746
:1025E00002206070F4E7A070107003206070EFE7C5
:1025F0002081507004206070EAE741EA00212181C7
:102600009070B1F5807F03D9BDE8F04100F07CB84F
:10261000A68105206070DBE76081D07006206070C5
:10262000D6E7618941EA002161811071072060705D
:10263000CEE72062507108206070C9E743EA0021AC
:102640002162907109206070C2E743EA0041216273
:10265000D0710A206070BBE743EA00632362107206
:1026600009B10B2000E00C206070B1E7A289531C77
:102670009BB2A381A8548B42AAD30C206070A7E719
:10268000E0810D206070A3E7E38943EA0020E08148
:1026900000201A4B165C1E54401C80B20928F9D346
:1026A000002005E022E01E182A5C7272401C80B2F5
:1026B0008842F8D309311148FEF7DBFAE1898842F4
:1026C0000BD0A069401CA0610D48016881F0800119
:1026D0000160BDE8F04100F017B822890949A078EF
:1026E000FFF71AFEBDE8F04100F00EB8BDE8F0417A
:1026F00000F00AB84C000020500F0020270D0020E9
:1027000014180240500E0020014900204870704704
:102710004C000020B1EE080AB2EE001A012816D0D3
:10272000F2EE040A022827D081ED001AC1ED010A59
:1027300081ED020A9FED1C0A81ED030AB6EE080A3C
:1027400081ED040A9FED190A81ED050A704781EDBC
:10275000000A81ED011AB1EE000A81ED020A9FED37
:10276000140A81ED030A9FED130A81ED040A9FED1F
:10277000120A81ED050A7047C1ED000AB1EE0C0A9C
:1027800081ED010AB1EE060A81ED020A9FED0B0A06
:1027900081ED030AB5EE000A81ED040A9FED080AF7
:1027A00081ED050A704700009A99993FCDCC4C3EC7
:1027B0006666863F6666263F3333B33ECDCC8C3F9C
:1027C000CDCCCC3D3EB50C468DF808008DF80940C7
:1027D000FDF7F2FD0346022002A9CDE900105CB12D
:1027E000832100220548FEF708FA0146002902D09D
:1027F0000248FDF7A5FF3EBD8221F2E70D0B002048
:102800007CB505460E461446FDF7D6FDCDE90064BD
:102810000B4C03462946A288501CA0800948FEF7AD
:10282000ECF9014600290AD00648FDF789FFFDF7BB
:10283000ADFFB0F53D7F02D36069401C60617CBD97
:102840004C000020000A002010B58AB0174C2078F8
:102850008DF80C00164801798DF80D1041798DF82E
:102860000E1000218DF80F1000680490206905906B
:10287000FDF7C4FD069060690790A0690890E069C3
:102880000990FDF799FD03461C2003A9CDE900102E
:10289000002284210748FEF7B0F90146002902D042
:1028A0000448FDF74DFF0AB010BD00004C000020A9
:1028B000300E00201A0C0020012240F2277101483E
:1028C000FEF791BF001001400449C86880EA40301B
:1028D00080EA504080EA4010C8607047380000200D
:1028E000000000000000F0410000F0410000000086
:1028F0000000704100000000000000000000F041F6
:102900000000F04100007041000000000000804025
:10291000000000000000A040000040410000000056
:102920000080513D0070C63D00900D3E0050343E89
:1029300000E0573E00D0783E00C08B3E0000000013
:102940000AD6A936431C8C37658F7338832DA2367F
:10295000121D1F38B3756F38D2535A38000000006B
:102960000030F13D0070643E0000A33E0090CF3E79
:102970000090F83E00400F3F00E0203F00000000C4
:1029800015B78337CDE37B380EE1C53860F6913853
:10299000AF5F0F38E1BC3E3823F447390000000038
:1029A0006E83F9A22915444ED15727FCC0DD34F5BA
:1029B000999562DB4190433CAB6351FEDC290008F2
:1029C0000000002074000000C8210008502A000800
:1029D00074000020EC120000D8210008007A030ADD
:1029E00000000000000000000102030406070809BF
:1029F00000000000010203040102030406070809A5
:102A000000000000000000000000000000000000C6
:102A100000000000010000000000000000000000B5
:102A2000EEFFC0A500000000000000000000000054
:102A30000000000000000000000000000000000096
:102A40000000000000000000000000000000000086
:040000050800018965
:00000001FF
